{
  "_format": "hh-sol-artifact-1",
  "contractName": "Poll",
  "sourceName": "contracts/Poll.sol",
  "abi": [
    {
      "inputs": [],
      "stateMutability": "nonpayable",
      "type": "constructor"
    },
    {
      "anonymous": false,
      "inputs": [
        {
          "indexed": true,
          "internalType": "address",
          "name": "previousOwner",
          "type": "address"
        },
        {
          "indexed": true,
          "internalType": "address",
          "name": "newOwner",
          "type": "address"
        }
      ],
      "name": "OwnershipTransferred",
      "type": "event"
    },
    {
      "inputs": [],
      "name": "claim",
      "outputs": [],
      "stateMutability": "nonpayable",
      "type": "function"
    },
    {
      "inputs": [
        {
          "internalType": "uint256",
          "name": "_nonce",
          "type": "uint256"
        },
        {
          "internalType": "bytes",
          "name": "_signature",
          "type": "bytes"
        }
      ],
      "name": "closePoll",
      "outputs": [],
      "stateMutability": "nonpayable",
      "type": "function"
    },
    {
      "inputs": [],
      "name": "closeTime",
      "outputs": [
        {
          "internalType": "uint256",
          "name": "",
          "type": "uint256"
        }
      ],
      "stateMutability": "view",
      "type": "function"
    },
    {
      "inputs": [
        {
          "internalType": "string",
          "name": "_text",
          "type": "string"
        },
        {
          "internalType": "uint256",
          "name": "_kind",
          "type": "uint256"
        },
        {
          "internalType": "string[]",
          "name": "_choices",
          "type": "string[]"
        }
      ],
      "name": "createQuestion",
      "outputs": [],
      "stateMutability": "nonpayable",
      "type": "function"
    },
    {
      "inputs": [
        {
          "internalType": "uint256",
          "name": "_index",
          "type": "uint256"
        }
      ],
      "name": "deleteQuestion",
      "outputs": [],
      "stateMutability": "nonpayable",
      "type": "function"
    },
    {
      "inputs": [],
      "name": "deployer",
      "outputs": [
        {
          "internalType": "address",
          "name": "",
          "type": "address"
        }
      ],
      "stateMutability": "view",
      "type": "function"
    },
    {
      "inputs": [],
      "name": "description",
      "outputs": [
        {
          "internalType": "string",
          "name": "",
          "type": "string"
        }
      ],
      "stateMutability": "view",
      "type": "function"
    },
    {
      "inputs": [
        {
          "internalType": "uint256",
          "name": "_newWhitelistSize",
          "type": "uint256"
        }
      ],
      "name": "estimateApproveTokenAmountForWhitelist",
      "outputs": [
        {
          "internalType": "uint256",
          "name": "",
          "type": "uint256"
        }
      ],
      "stateMutability": "view",
      "type": "function"
    },
    {
      "inputs": [],
      "name": "gasWallet",
      "outputs": [
        {
          "internalType": "address",
          "name": "",
          "type": "address"
        }
      ],
      "stateMutability": "view",
      "type": "function"
    },
    {
      "inputs": [],
      "name": "getPollDetail",
      "outputs": [
        {
          "internalType": "string",
          "name": "",
          "type": "string"
        },
        {
          "internalType": "string",
          "name": "",
          "type": "string"
        },
        {
          "internalType": "address",
          "name": "",
          "type": "address"
        },
        {
          "internalType": "address",
          "name": "",
          "type": "address"
        },
        {
          "internalType": "address",
          "name": "",
          "type": "address"
        },
        {
          "internalType": "uint256",
          "name": "",
          "type": "uint256"
        },
        {
          "internalType": "uint256",
          "name": "",
          "type": "uint256"
        },
        {
          "internalType": "bool",
          "name": "",
          "type": "bool"
        },
        {
          "internalType": "uint256",
          "name": "",
          "type": "uint256"
        },
        {
          "internalType": "uint256",
          "name": "",
          "type": "uint256"
        },
        {
          "internalType": "uint256",
          "name": "",
          "type": "uint256"
        },
        {
          "internalType": "uint256",
          "name": "",
          "type": "uint256"
        }
      ],
      "stateMutability": "view",
      "type": "function"
    },
    {
      "inputs": [
        {
          "internalType": "uint256",
          "name": "_qIndex",
          "type": "uint256"
        }
      ],
      "name": "getQuestionDetails",
      "outputs": [
        {
          "components": [
            {
              "internalType": "uint256",
              "name": "createdAt",
              "type": "uint256"
            },
            {
              "internalType": "string",
              "name": "text",
              "type": "string"
            },
            {
              "internalType": "uint256",
              "name": "kind",
              "type": "uint256"
            },
            {
              "internalType": "uint256",
              "name": "numOfChoices",
              "type": "uint256"
            },
            {
              "internalType": "string[]",
              "name": "choices",
              "type": "string[]"
            },
            {
              "internalType": "uint256[]",
              "name": "values",
              "type": "uint256[]"
            }
          ],
          "internalType": "struct QuestionDescriptor",
          "name": "",
          "type": "tuple"
        }
      ],
      "stateMutability": "view",
      "type": "function"
    },
    {
      "inputs": [],
      "name": "getQuestions",
      "outputs": [
        {
          "components": [
            {
              "internalType": "uint256",
              "name": "createdAt",
              "type": "uint256"
            },
            {
              "internalType": "string",
              "name": "text",
              "type": "string"
            },
            {
              "internalType": "uint256",
              "name": "kind",
              "type": "uint256"
            },
            {
              "internalType": "uint256",
              "name": "numOfChoices",
              "type": "uint256"
            },
            {
              "internalType": "string[]",
              "name": "choices",
              "type": "string[]"
            },
            {
              "internalType": "uint256[]",
              "name": "values",
              "type": "uint256[]"
            }
          ],
          "internalType": "struct QuestionDescriptor[]",
          "name": "",
          "type": "tuple[]"
        }
      ],
      "stateMutability": "view",
      "type": "function"
    },
    {
      "inputs": [],
      "name": "getVoteResult",
      "outputs": [
        {
          "components": [
            {
              "internalType": "uint256",
              "name": "createdAt",
              "type": "uint256"
            },
            {
              "internalType": "address",
              "name": "votor",
              "type": "address"
            },
            {
              "internalType": "uint256[]",
              "name": "answers",
              "type": "uint256[]"
            }
          ],
          "internalType": "struct AnswerToQuestion[]",
          "name": "",
          "type": "tuple[]"
        }
      ],
      "stateMutability": "view",
      "type": "function"
    },
    {
      "inputs": [
        {
          "internalType": "string",
          "name": "_title",
          "type": "string"
        },
        {
          "internalType": "string",
          "name": "_description",
          "type": "string"
        },
        {
          "internalType": "address",
          "name": "_tokenAddr",
          "type": "address"
        },
        {
          "internalType": "uint256",
          "name": "_openTime",
          "type": "uint256"
        },
        {
          "internalType": "uint256",
          "name": "_closeTime",
          "type": "uint256"
        },
        {
          "internalType": "address",
          "name": "_gasWallet",
          "type": "address"
        }
      ],
      "name": "initialize",
      "outputs": [],
      "stateMutability": "nonpayable",
      "type": "function"
    },
    {
      "inputs": [],
      "name": "isCommunityVote",
      "outputs": [
        {
          "internalType": "bool",
          "name": "",
          "type": "bool"
        }
      ],
      "stateMutability": "view",
      "type": "function"
    },
    {
      "inputs": [],
      "name": "isInitialized",
      "outputs": [
        {
          "internalType": "bool",
          "name": "",
          "type": "bool"
        }
      ],
      "stateMutability": "view",
      "type": "function"
    },
    {
      "inputs": [
        {
          "internalType": "address",
          "name": "",
          "type": "address"
        }
      ],
      "name": "isVoted",
      "outputs": [
        {
          "internalType": "bool",
          "name": "",
          "type": "bool"
        }
      ],
      "stateMutability": "view",
      "type": "function"
    },
    {
      "inputs": [],
      "name": "manager",
      "outputs": [
        {
          "internalType": "address",
          "name": "",
          "type": "address"
        }
      ],
      "stateMutability": "view",
      "type": "function"
    },
    {
      "inputs": [],
      "name": "openTime",
      "outputs": [
        {
          "internalType": "uint256",
          "name": "",
          "type": "uint256"
        }
      ],
      "stateMutability": "view",
      "type": "function"
    },
    {
      "inputs": [],
      "name": "owner",
      "outputs": [
        {
          "internalType": "address",
          "name": "",
          "type": "address"
        }
      ],
      "stateMutability": "view",
      "type": "function"
    },
    {
      "inputs": [
        {
          "internalType": "uint256",
          "name": "",
          "type": "uint256"
        }
      ],
      "name": "questions",
      "outputs": [
        {
          "internalType": "uint256",
          "name": "createdAt",
          "type": "uint256"
        },
        {
          "internalType": "string",
          "name": "text",
          "type": "string"
        },
        {
          "internalType": "uint256",
          "name": "kind",
          "type": "uint256"
        },
        {
          "internalType": "uint256",
          "name": "numOfChoices",
          "type": "uint256"
        }
      ],
      "stateMutability": "view",
      "type": "function"
    },
    {
      "inputs": [],
      "name": "renounceOwnership",
      "outputs": [],
      "stateMutability": "nonpayable",
      "type": "function"
    },
    {
      "inputs": [
        {
          "internalType": "address",
          "name": "_mainVote",
          "type": "address"
        }
      ],
      "name": "setMainVote",
      "outputs": [],
      "stateMutability": "nonpayable",
      "type": "function"
    },
    {
      "inputs": [],
      "name": "sizeOfWhitelist",
      "outputs": [
        {
          "internalType": "uint256",
          "name": "",
          "type": "uint256"
        }
      ],
      "stateMutability": "view",
      "type": "function"
    },
    {
      "inputs": [],
      "name": "title",
      "outputs": [
        {
          "internalType": "string",
          "name": "",
          "type": "string"
        }
      ],
      "stateMutability": "view",
      "type": "function"
    },
    {
      "inputs": [],
      "name": "tokenAddress",
      "outputs": [
        {
          "internalType": "address",
          "name": "",
          "type": "address"
        }
      ],
      "stateMutability": "view",
      "type": "function"
    },
    {
      "inputs": [
        {
          "internalType": "address",
          "name": "newOwner",
          "type": "address"
        }
      ],
      "name": "transferOwnership",
      "outputs": [],
      "stateMutability": "nonpayable",
      "type": "function"
    },
    {
      "inputs": [
        {
          "internalType": "string",
          "name": "_title",
          "type": "string"
        },
        {
          "internalType": "string",
          "name": "_description",
          "type": "string"
        },
        {
          "internalType": "uint256",
          "name": "_openTime",
          "type": "uint256"
        },
        {
          "internalType": "uint256",
          "name": "_closeTime",
          "type": "uint256"
        }
      ],
      "name": "updatePollDetails",
      "outputs": [],
      "stateMutability": "payable",
      "type": "function"
    },
    {
      "inputs": [
        {
          "internalType": "uint256",
          "name": "_qIndex",
          "type": "uint256"
        },
        {
          "internalType": "string",
          "name": "_text",
          "type": "string"
        },
        {
          "internalType": "uint256",
          "name": "_kind",
          "type": "uint256"
        },
        {
          "internalType": "string[]",
          "name": "_choices",
          "type": "string[]"
        }
      ],
      "name": "updateQuestion",
      "outputs": [],
      "stateMutability": "nonpayable",
      "type": "function"
    },
    {
      "inputs": [
        {
          "internalType": "bool",
          "name": "_isCommunityVote",
          "type": "bool"
        },
        {
          "internalType": "uint256",
          "name": "_newWhitelistSize",
          "type": "uint256"
        }
      ],
      "name": "updateWhitelist",
      "outputs": [],
      "stateMutability": "nonpayable",
      "type": "function"
    },
    {
      "inputs": [
        {
          "internalType": "uint256[]",
          "name": "_answers",
          "type": "uint256[]"
        },
        {
          "internalType": "uint256",
          "name": "_amount",
          "type": "uint256"
        },
        {
          "internalType": "uint256",
          "name": "_nonce",
          "type": "uint256"
        },
        {
          "internalType": "bytes",
          "name": "_signature",
          "type": "bytes"
        }
      ],
      "name": "voteQuestions",
      "outputs": [],
      "stateMutability": "nonpayable",
      "type": "function"
    },
    {
      "inputs": [
        {
          "internalType": "uint256",
          "name": "",
          "type": "uint256"
        }
      ],
      "name": "votors",
      "outputs": [
        {
          "internalType": "address",
          "name": "",
          "type": "address"
        }
      ],
      "stateMutability": "view",
      "type": "function"
    },
    {
      "inputs": [],
      "name": "withdraw",
      "outputs": [
        {
          "internalType": "bool",
          "name": "",
          "type": "bool"
        }
      ],
      "stateMutability": "nonpayable",
      "type": "function"
    }
  ],
  "bytecode": "0x60806040523480156200001157600080fd5b50600160005562000022336200003a565b600b80546001600160a01b031916331790556200008c565b600180546001600160a01b038381166001600160a01b0319831681179093556040519116919082907f8be0079c531659141344cd1fd0a4f28419497f9722a3daafe3b4186f6b6457e090600090a35050565b613d64806200009c6000396000f3fe6080604052600436106101fe5760003560e01c80637c9b2e701161011d578063b4256888116100b0578063cd084de51161007f578063d5f3948811610064578063d5f39488146105e6578063f2fde38b14610606578063f4c4a4c21461062657600080fd5b8063cd084de5146105a6578063d1f2d064146105c657600080fd5b8063b42568881461052d578063b900ea5c14610543578063bed18f9b14610563578063cbff75cb1461057657600080fd5b806397221ab7116100ec57806397221ab71461049e5780639a3c4c79146104c05780639d76ea58146104e05780639f8c45cf1461050057600080fd5b80637c9b2e701461041e578063840552d01461043e5780638742fc3b1461045e5780638da5cb5b1461048057600080fd5b80634a79d50c11610195578063627749e611610164578063627749e6146103c85780636a7cdfdf146103de578063715018a6146103f45780637284e4161461040957600080fd5b80634a79d50c146103515780634e71d92d1461037357806352e199c5146103885780635713decd146103a857600080fd5b806344d9d83b116101d157806344d9d83b1461029c57806347118208146102be578063481c6a75146102eb578063491eaade1461032357600080fd5b806331b1b97814610203578063392e53cd1461023c5780633ccfd60b1461026d578063423ee19b14610282575b600080fd5b34801561020f57600080fd5b5061022361021e366004613372565b610646565b60405161023394939291906133e3565b60405180910390f35b34801561024857600080fd5b50600b5461025d90600160a01b900460ff1681565b6040519015158152602001610233565b34801561027957600080fd5b5061025d61070a565b34801561028e57600080fd5b5060095461025d9060ff1681565b3480156102a857600080fd5b506102bc6102b736600461341d565b6107b4565b005b3480156102ca57600080fd5b506102d3610bc9565b6040516102339c9b9a99989796959493929190613449565b3480156102f757600080fd5b5060025461030b906001600160a01b031681565b6040516001600160a01b039091168152602001610233565b34801561032f57600080fd5b5061034361033e366004613372565b610dd2565b604051908152602001610233565b34801561035d57600080fd5b50610366610e81565b60405161023391906134cb565b34801561037f57600080fd5b506102bc610f0f565b34801561039457600080fd5b5060035461030b906001600160a01b031681565b3480156103b457600080fd5b5061030b6103c3366004613372565b610f37565b3480156103d457600080fd5b5061034360085481565b3480156103ea57600080fd5b50610343600a5481565b34801561040057600080fd5b506102bc610f61565b34801561041557600080fd5b50610366610f73565b34801561042a57600080fd5b506102bc6104393660046134fa565b610f80565b34801561044a57600080fd5b506102bc6104593660046135c4565b610ffc565b34801561046a57600080fd5b50610473611483565b60405161023391906136d7565b34801561048c57600080fd5b506001546001600160a01b031661030b565b3480156104aa57600080fd5b506104b3611556565b6040516102339190613811565b3480156104cc57600080fd5b506102bc6104db366004613372565b6118aa565b3480156104ec57600080fd5b5060065461030b906001600160a01b031681565b34801561050c57600080fd5b5061052061051b366004613372565b611b8a565b6040516102339190613873565b34801561053957600080fd5b5061034360075481565b34801561054f57600080fd5b506102bc61055e366004613886565b611e2b565b6102bc610571366004613942565b6122e6565b34801561058257600080fd5b5061025d6105913660046134fa565b600d6020526000908152604090205460ff1681565b3480156105b257600080fd5b506102bc6105c13660046139b6565b6123a1565b3480156105d257600080fd5b506102bc6105e1366004613ade565b6124e7565b3480156105f257600080fd5b50600b5461030b906001600160a01b031681565b34801561061257600080fd5b506102bc6106213660046134fa565b6129aa565b34801561063257600080fd5b506102bc610641366004613b4b565b6129b2565b600e818154811061065657600080fd5b6000918252602090912060069091020180546001820180549193509061067b90613bc2565b80601f01602080910402602001604051908101604052809291908181526020018280546106a790613bc2565b80156106f45780601f106106c9576101008083540402835291602001916106f4565b820191906000526020600020905b8154815290600101906020018083116106d757829003601f168201915b5050505050908060020154908060030154905084565b6000610714612ba3565b61071c612bfc565b600047905060006107a3601160009054906101000a90046001600160a01b03166001600160a01b0316632b905bf66040518163ffffffff1660e01b8152600401602060405180830381865afa158015610779573d6000803e3d6000fd5b505050506040513d601f19601f8201168201806040525081019061079d9190613bf6565b83612c56565b925050506107b16001600055565b90565b6107bc612ba3565b6107c4612bfc565b600a5481116107d45760006107e1565b600a546107e19082613c29565b601160009054906101000a90046001600160a01b03166001600160a01b03166304fb35746040518163ffffffff1660e01b8152600401602060405180830381865afa158015610834573d6000803e3d6000fd5b505050506040513d601f19601f820116820180604052508101906108589190613c40565b6108629190613c59565b6006546001600160a01b031663dd62ed3e336040516001600160e01b031960e084901b1681526001600160a01b039091166004820152306024820152604401602060405180830381865afa1580156108be573d6000803e3d6000fd5b505050506040513d601f19601f820116820180604052508101906108e29190613c40565b101561095b5760405162461bcd60e51b815260206004820152603c60248201527f596f752073686f756c6420617070726f766520656e6f75676820616d6f756e7460448201527f20746f6b656e7320746f207375626d69742077686974656c6973742e0000000060648201526084015b60405180910390fd5b600a54811115610a89576000600a54826109759190613c29565b601160009054906101000a90046001600160a01b03166001600160a01b03166304fb35746040518163ffffffff1660e01b8152600401602060405180830381865afa1580156109c8573d6000803e3d6000fd5b505050506040513d601f19601f820116820180604052508101906109ec9190613c40565b6109f69190613c59565b6006549091506001600160a01b03166323b872dd336040516001600160e01b031960e084901b1681526001600160a01b039091166004820152306024820152604481018490526064016020604051808303816000875af1158015610a5e573d6000803e3d6000fd5b505050506040513d601f19601f82011682018060405250810190610a829190613c78565b5050610bad565b600a54811015610bad57600081600a54610aa39190613c29565b601160009054906101000a90046001600160a01b03166001600160a01b03166304fb35746040518163ffffffff1660e01b8152600401602060405180830381865afa158015610af6573d6000803e3d6000fd5b505050506040513d601f19601f82011682018060405250810190610b1a9190613c40565b610b249190613c59565b6006549091506001600160a01b031663a9059cbb336040516001600160e01b031960e084901b1681526001600160a01b039091166004820152602481018490526044016020604051808303816000875af1158015610b86573d6000803e3d6000fd5b505050506040513d601f19601f82011682018060405250810190610baa9190613c78565b50505b6009805460ff1916831515179055600a81905560016000555050565b6006546040516370a0823160e01b81523060048201526060918291600091829182918291829182918291829182918291479183916001600160a01b03909116906370a0823190602401602060405180830381865afa158015610c2f573d6000803e3d6000fd5b505050506040513d601f19601f82011682018060405250810190610c539190613c40565b600254600354600654600754600854600954600a54600e5460048054999a50986005986001600160a01b03908116988116971695949360ff1692918c918c91908c90610c9e90613bc2565b80601f0160208091040260200160405190810160405280929190818152602001828054610cca90613bc2565b8015610d175780601f10610cec57610100808354040283529160200191610d17565b820191906000526020600020905b815481529060010190602001808311610cfa57829003601f168201915b50505050509b508a8054610d2a90613bc2565b80601f0160208091040260200160405190810160405280929190818152602001828054610d5690613bc2565b8015610da35780601f10610d7857610100808354040283529160200191610da3565b820191906000526020600020905b815481529060010190602001808311610d8657829003601f168201915b50505050509a509d509d509d509d509d509d509d509d509d509d509d509d505050909192939495969798999a9b565b6000610ddc612bfc565b600a548211610ded57506000919050565b600a54610dfa9083613c29565b601160009054906101000a90046001600160a01b03166001600160a01b03166304fb35746040518163ffffffff1660e01b8152600401602060405180830381865afa158015610e4d573d6000803e3d6000fd5b505050506040513d601f19601f82011682018060405250810190610e719190613c40565b610e7b9190613c59565b92915050565b60048054610e8e90613bc2565b80601f0160208091040260200160405190810160405280929190818152602001828054610eba90613bc2565b8015610f075780601f10610edc57610100808354040283529160200191610f07565b820191906000526020600020905b815481529060010190602001808311610eea57829003601f168201915b505050505081565b610f17612ba3565b610f1f612bfc565b610f2a335b47612c56565b50610f356001600055565b565b60108181548110610f4757600080fd5b6000918252602090912001546001600160a01b0316905081565b610f69612bfc565b610f356000612cd4565b60058054610e8e90613bc2565b600b546001600160a01b03163314610fda5760405162461bcd60e51b815260206004820152601b60248201527f43616c6c6572206973206e6f7420506f6c6c206465706c6f79657200000000006044820152606401610952565b601180546001600160a01b0319166001600160a01b0392909216919091179055565b611004612ba3565b600754421015801561101857506008544211155b6110645760405162461bcd60e51b815260206004820152601760248201527f54686520706f6c6c206973206e6f74206163746976652e0000000000000000006044820152606401610952565b6000838152600c6020526040902054839060ff16156110c55760405162461bcd60e51b815260206004820152601a60248201527f54686973206e6f6e6365206973207573656420616c72656164790000000000006044820152606401610952565b6000818152600c60205260409020805460ff191660011790556003546001600160a01b03166110f13390565b6001600160a01b0316146111475760405162461bcd60e51b815260206004820152601f60248201527f63616c6c6572206973206e6f74207269676874206761732077616c6c65742e006044820152606401610952565b600a54601054106111c05760405162461bcd60e51b815260206004820152602660248201527f456e6f756768206e756d626572206f6620766f7465727320616c72656164792060448201527f766f7465642e00000000000000000000000000000000000000000000000000006064820152608401610952565b60006111e16111d76001546001600160a01b031690565b3088888888612d26565b6001600160a01b0381166000908152600d602052604090205490915060ff161561124d5760405162461bcd60e51b815260206004820152600d60248201527f616c726561647920766f746564000000000000000000000000000000000000006044820152606401610952565b6006546003546040516370a0823160e01b81526001600160a01b03918216600482015260009291909116906370a0823190602401602060405180830381865afa15801561129e573d6000803e3d6000fd5b505050506040513d601f19601f820116820180604052508101906112c29190613c40565b11611337576040805162461bcd60e51b81526020600482015260248101919091527f596f7520617265206e6f7420617574686f72697a656420746f20766f74652e2060448201527f286e6f7420656e6f75676820746f6b656e20696e206761732077616c6c6574296064820152608401610952565b604080516060810182524281526001600160a01b0383811660208084019182529383018b8152600f805460018101825560009190915284517f8d1108e10bcb7c27dddfc02ed9d693a074039d026cf4ea4240b40f7d581ac802600390920291820190815592517f8d1108e10bcb7c27dddfc02ed9d693a074039d026cf4ea4240b40f7d581ac803820180546001600160a01b03191691909516179093555180519394919361140c937f8d1108e10bcb7c27dddfc02ed9d693a074039d026cf4ea4240b40f7d581ac804019291909101906130a3565b50506010805460018082019092557f1b6847dc741a1b0cd08d278845f9d819d87b734759afb55fe2de5cb82a9ae6720180546001600160a01b0319166001600160a01b039490941693841790556000928352600d60205260408320805460ff1916821790559091555061147c9050565b5050505050565b606061148d612bfc565b600f805480602002602001604051908101604052809291908181526020016000905b8282101561154d57600084815260209081902060408051606081018252600386029092018054835260018101546001600160a01b031683850152600281018054835181870281018701855281815294959294938601939283018282801561153557602002820191906000526020600020905b815481526020019060010190808311611521575b505050505081525050815260200190600101906114af565b50505050905090565b600e5460609060009067ffffffffffffffff81111561157757611577613517565b6040519080825280602002602001820160405280156115e157816020015b6115ce6040518060c001604052806000815260200160608152602001600081526020016000815260200160608152602001606081525090565b8152602001906001900390816115955790505b50905060005b600e548110156118a457600e818154811061160457611604613c95565b90600052602060002090600602016040518060c00160405290816000820154815260200160018201805461163790613bc2565b80601f016020809104026020016040519081016040528092919081815260200182805461166390613bc2565b80156116b05780601f10611685576101008083540402835291602001916116b0565b820191906000526020600020905b81548152906001019060200180831161169357829003601f168201915b50505050508152602001600282015481526020016003820154815260200160048201805480602002602001604051908101604052809291908181526020016000905b8282101561179e57838290600052602060002001805461171190613bc2565b80601f016020809104026020016040519081016040528092919081815260200182805461173d90613bc2565b801561178a5780601f1061175f5761010080835404028352916020019161178a565b820191906000526020600020905b81548152906001019060200180831161176d57829003601f168201915b5050505050815260200190600101906116f2565b505050508152602001600582018054806020026020016040519081016040528092919081815260200182805480156117f557602002820191906000526020600020905b8154815260200190600101908083116117e1575b50505050508152505082828151811061181057611810613c95565b602002602001018190525060005b82828151811061183057611830613c95565b60200260200101516060015181101561189157600083838151811061185757611857613c95565b602002602001015160a00151828151811061187457611874613c95565b60209081029190910101528061188981613cab565b91505061181e565b508061189c81613cab565b9150506115e7565b50919050565b6118b2612ba3565b60075442106119035760405162461bcd60e51b815260206004820152601b60248201527f54686520706f6c6c2069732061637469766520616c72656164792e00000000006044820152606401610952565b61190b612bfc565b600e548190811061195e5760405162461bcd60e51b815260206004820181905260248201527f546865207175657374696f6e20696e646578206973206e6f742076616c69642e6044820152606401610952565b6006546001600160a01b031663a9059cbb33601160009054906101000a90046001600160a01b03166001600160a01b031663657435316040518163ffffffff1660e01b8152600401602060405180830381865afa1580156119c3573d6000803e3d6000fd5b505050506040513d601f19601f820116820180604052508101906119e79190613c40565b6040516001600160e01b031960e085901b1681526001600160a01b03909216600483015260248201526044016020604051808303816000875af1158015611a32573d6000803e3d6000fd5b505050506040513d601f19601f82011682018060405250810190611a569190613c78565b50600e8054611a6790600190613c29565b81548110611a7757611a77613c95565b9060005260206000209060060201600e8381548110611a9857611a98613c95565b9060005260206000209060060201600082015481600001556001820181600101908054611ac490613bc2565b611acf9291906130ee565b5060028201548160020155600382015481600301556004820181600401908054611afa929190613169565b5060058281018054611b0f92840191906131cb565b50905050600e805480611b2457611b24613cc4565b60008281526020812060066000199093019283020181815590611b4a600183018261320a565b60028201600090556003820160009055600482016000611b6a9190613244565b611b78600583016000613262565b5050905550611b876001600055565b50565b611bc36040518060c001604052806000815260200160608152602001600081526020016000815260200160608152602001606081525090565b600e5482908110611c165760405162461bcd60e51b815260206004820181905260248201527f546865207175657374696f6e20696e646578206973206e6f742076616c69642e6044820152606401610952565b600e8381548110611c2957611c29613c95565b90600052602060002090600602016040518060c001604052908160008201548152602001600182018054611c5c90613bc2565b80601f0160208091040260200160405190810160405280929190818152602001828054611c8890613bc2565b8015611cd55780601f10611caa57610100808354040283529160200191611cd5565b820191906000526020600020905b815481529060010190602001808311611cb857829003601f168201915b50505050508152602001600282015481526020016003820154815260200160048201805480602002602001604051908101604052809291908181526020016000905b82821015611dc3578382906000526020600020018054611d3690613bc2565b80601f0160208091040260200160405190810160405280929190818152602001828054611d6290613bc2565b8015611daf5780601f10611d8457610100808354040283529160200191611daf565b820191906000526020600020905b815481529060010190602001808311611d9257829003601f168201915b505050505081526020019060010190611d17565b50505050815260200160058201805480602002602001604051908101604052809291908181526020018280548015611e1a57602002820191906000526020600020905b815481526020019060010190808311611e06575b505050505081525050915050919050565b611e33612ba3565b611e3b612bfc565b6008544211611e8c5760405162461bcd60e51b815260206004820152601560248201527f54686520706f6c6c2069732066696e69736865642e00000000000000000000006044820152606401610952565b6000838152600c6020526040902054839060ff1615611eed5760405162461bcd60e51b815260206004820152601a60248201527f54686973206e6f6e6365206973207573656420616c72656164790000000000006044820152606401610952565b6000818152600c60205260409020805460ff191660011790556003546001600160a01b0316611f32611f276001546001600160a01b031690565b306000888888612d26565b6001600160a01b031614611fae5760405162461bcd60e51b815260206004820152602860248201527f596f75277265206e6f7420617574686f72697a656420746f20636c6f7365207460448201527f686520706f6c6c2e0000000000000000000000000000000000000000000000006064820152608401610952565b4715611fcb57611fc9610f246001546001600160a01b031690565b505b6006546040516370a0823160e01b81523060048201526000916001600160a01b0316906370a0823190602401602060405180830381865afa158015612014573d6000803e3d6000fd5b505050506040513d601f19601f820116820180604052508101906120389190613c40565b905080156122d557600654601154604080517f2b905bf600000000000000000000000000000000000000000000000000000000815290516001600160a01b039384169363a9059cbb931691632b905bf69160048083019260209291908290030181865afa1580156120ad573d6000803e3d6000fd5b505050506040513d601f19601f820116820180604052508101906120d19190613bf6565b6011546040805163272619d960e21b815290516064926001600160a01b031691639c9867649160048083019260209291908290030181865afa15801561211b573d6000803e3d6000fd5b505050506040513d601f19601f8201168201806040525081019061213f9190613c40565b61214a906064613c29565b6121549086613c59565b61215e9190613cda565b6040516001600160e01b031960e085901b1681526001600160a01b03909216600483015260248201526044016020604051808303816000875af11580156121a9573d6000803e3d6000fd5b505050506040513d601f19601f820116820180604052508101906121cd9190613c78565b506006546011546040805163272619d960e21b815290516001600160a01b039384169363a9059cbb9361dead936064939190921691639c9867649160048083019260209291908290030181865afa15801561222c573d6000803e3d6000fd5b505050506040513d601f19601f820116820180604052508101906122509190613c40565b61225a9086613c59565b6122649190613cda565b6040516001600160e01b031960e085901b1681526001600160a01b03909216600483015260248201526044016020604051808303816000875af11580156122af573d6000803e3d6000fd5b505050506040513d601f19601f820116820180604052508101906122d39190613c78565b505b50506122e16001600055565b505050565b6122ee612ba3565b6122f6612bfc565b81818082106123475760405162461bcd60e51b815260206004820152601b60248201527f5468652074696d6520736c6f74206973206e6f742076616c69642e00000000006044820152606401610952565b60075442101561237f578551612364906004906020890190613280565b508451612378906005906020880190613280565b5060078490555b60085442101561238f5760088390555b505061239b6001600055565b50505050565b600b54600160a01b900460ff16156123fb5760405162461bcd60e51b815260206004820152601360248201527f416c726561647920696e697469616c697a6564000000000000000000000000006044820152606401610952565b6011546001600160a01b031633146124555760405162461bcd60e51b815260206004820152600b60248201527f4e6f7420666163746f72790000000000000000000000000000000000000000006044820152606401610952565b600b80547fffffffffffffffffffffff00ffffffffffffffffffffffffffffffffffffffff16600160a01b1790558551612496906004906020890190613280565b5084516124aa906005906020880190613280565b50600680546001600160a01b039586166001600160a01b031991821617909155600793909355600891909155600380549190931691161790555050565b6124ef612ba3565b60075442106125405760405162461bcd60e51b815260206004820152601b60248201527f54686520706f6c6c2069732061637469766520616c72656164792e00000000006044820152606401610952565b612548612bfc565b601160009054906101000a90046001600160a01b03166001600160a01b0316636ce1782e6040518163ffffffff1660e01b8152600401602060405180830381865afa15801561259b573d6000803e3d6000fd5b505050506040513d601f19601f820116820180604052508101906125bf9190613c40565b600e54106126355760405162461bcd60e51b815260206004820152602160248201527f43616e6e6f7420637265617465207175657374696f6e7320616e79206d6f726560448201527f2e000000000000000000000000000000000000000000000000000000000000006064820152608401610952565b601160009054906101000a90046001600160a01b03166001600160a01b031663657435316040518163ffffffff1660e01b8152600401602060405180830381865afa158015612688573d6000803e3d6000fd5b505050506040513d601f19601f820116820180604052508101906126ac9190613c40565b6006546001600160a01b031663dd62ed3e336040516001600160e01b031960e084901b1681526001600160a01b039091166004820152306024820152604401602060405180830381865afa158015612708573d6000803e3d6000fd5b505050506040513d601f19601f8201168201806040525081019061272c9190613c40565b10156127a05760405162461bcd60e51b815260206004820152603d60248201527f596f752073686f756c6420617070726f766520656e6f75676820616d6f756e7460448201527f20746f6b656e7320746f206372656174652061207175657374696f6e2e0000006064820152608401610952565b6006546001600160a01b03166323b872dd33601154604080517f65743531000000000000000000000000000000000000000000000000000000008152905130926001600160a01b03169163657435319160048083019260209291908290030181865afa158015612814573d6000803e3d6000fd5b505050506040513d601f19601f820116820180604052508101906128389190613c40565b6040516001600160e01b031960e086901b1681526001600160a01b03938416600482015292909116602483015260448201526064016020604051808303816000875af115801561288c573d6000803e3d6000fd5b505050506040513d601f19601f820116820180604052508101906128b09190613c78565b50600e6040518060c0016040528042815260200185815260200184815260200183518152602001838152602001835167ffffffffffffffff8111156128f7576128f7613517565b604051908082528060200260200182016040528015612920578160200160208202803683370190505b509052815460018181018455600093845260209384902083516006909302019182558383015180519394929361295e93928501929190910190613280565b5060408201516002820155606082015160038201556080820151805161298e9160048401916020909101906132f3565b5060a082015180516122d39160058401916020909101906130a3565b611b87612bfc565b6129ba612ba3565b6007544210612a0b5760405162461bcd60e51b815260206004820152601b60248201527f54686520706f6c6c2069732061637469766520616c72656164792e00000000006044820152606401610952565b612a13612bfc565b600e5484908110612a665760405162461bcd60e51b815260206004820181905260248201527f546865207175657374696f6e20696e646578206973206e6f742076616c69642e6044820152606401610952565b6000600e8681548110612a7b57612a7b613c95565b90600052602060002090600602016000015490506040518060c0016040528082815260200186815260200185815260200184518152602001848152602001845167ffffffffffffffff811115612ad357612ad3613517565b604051908082528060200260200182016040528015612afc578160200160208202803683370190505b50815250600e8781548110612b1357612b13613c95565b9060005260206000209060060201600082015181600001556020820151816001019080519060200190612b47929190613280565b50604082015160028201556060820151600382015560808201518051612b779160048401916020909101906132f3565b5060a08201518051612b939160058401916020909101906130a3565b50905050505061239b6001600055565b600260005403612bf55760405162461bcd60e51b815260206004820152601f60248201527f5265656e7472616e637947756172643a207265656e7472616e742063616c6c006044820152606401610952565b6002600055565b6001546001600160a01b03163314610f355760405162461bcd60e51b815260206004820181905260248201527f4f776e61626c653a2063616c6c6572206973206e6f7420746865206f776e65726044820152606401610952565b6040805160008082526020820190925281906001600160a01b03851690617530908590604051612c869190613cfc565b600060405180830381858888f193505050503d8060008114612cc4576040519150601f19603f3d011682016040523d82523d6000602084013e612cc9565b606091505b509095945050505050565b600180546001600160a01b038381166001600160a01b0319831681179093556040519116919082907f8be0079c531659141344cd1fd0a4f28419497f9722a3daafe3b4186f6b6457e090600090a35050565b6040516bffffffffffffffffffffffff19606088811b8216602084015287901b1660348201526048810185905260688101849052600090819060880160408051601f198184030181529082905280516020918201207f19457468657265756d205369676e6564204d6573736167653a0a33320000000091830191909152603c820152605c01604051602081830303815290604052805190602001209050612e0584848080601f0160208091040260200160405190810160405280939291908181526020018383808284376000920191909152508593925050612e119050565b98975050505050505050565b6000806000612e208585612e35565b91509150612e2d81612e7a565b509392505050565b6000808251604103612e6b5760208301516040840151606085015160001a612e5f87828585612fdf565b94509450505050612e73565b506000905060025b9250929050565b6000816004811115612e8e57612e8e613d18565b03612e965750565b6001816004811115612eaa57612eaa613d18565b03612ef75760405162461bcd60e51b815260206004820152601860248201527f45434453413a20696e76616c6964207369676e617475726500000000000000006044820152606401610952565b6002816004811115612f0b57612f0b613d18565b03612f585760405162461bcd60e51b815260206004820152601f60248201527f45434453413a20696e76616c6964207369676e6174757265206c656e677468006044820152606401610952565b6003816004811115612f6c57612f6c613d18565b03611b875760405162461bcd60e51b815260206004820152602260248201527f45434453413a20696e76616c6964207369676e6174757265202773272076616c60448201527f75650000000000000000000000000000000000000000000000000000000000006064820152608401610952565b6000807f7fffffffffffffffffffffffffffffff5d576e7357a4501ddfe92f46681b20a0831115613016575060009050600361309a565b6040805160008082526020820180845289905260ff881692820192909252606081018690526080810185905260019060a0016020604051602081039080840390855afa15801561306a573d6000803e3d6000fd5b5050604051601f1901519150506001600160a01b0381166130935760006001925092505061309a565b9150600090505b94509492505050565b8280548282559060005260206000209081019282156130de579160200282015b828111156130de5782518255916020019190600101906130c3565b506130ea929150613340565b5090565b8280546130fa90613bc2565b90600052602060002090601f01602090048101928261311c57600085556130de565b82601f1061312d57805485556130de565b828001600101855582156130de57600052602060002091601f016020900482015b828111156130de57825482559160010191906001019061314e565b8280548282559060005260206000209081019282156131bf5760005260206000209182015b828111156131bf5782829080546131a490613bc2565b6131af9291906130ee565b509160010191906001019061318e565b506130ea929150613355565b8280548282559060005260206000209081019282156130de576000526020600020918201828111156130de57825482559160010191906001019061314e565b50805461321690613bc2565b6000825580601f10613226575050565b601f016020900490600052602060002090810190611b879190613340565b5080546000825590600052602060002090810190611b879190613355565b5080546000825590600052602060002090810190611b879190613340565b82805461328c90613bc2565b90600052602060002090601f0160209004810192826132ae57600085556130de565b82601f106132c757805160ff19168380011785556130de565b828001600101855582156130de57918201828111156130de5782518255916020019190600101906130c3565b8280548282559060005260206000209081019282156131bf579160200282015b828111156131bf5782518051613330918491602090910190613280565b5091602001919060010190613313565b5b808211156130ea5760008155600101613341565b808211156130ea576000613369828261320a565b50600101613355565b60006020828403121561338457600080fd5b5035919050565b60005b838110156133a657818101518382015260200161338e565b8381111561239b5750506000910152565b600081518084526133cf81602086016020860161338b565b601f01601f19169290920160200192915050565b8481526080602082015260006133fc60808301866133b7565b6040830194909452506060015292915050565b8015158114611b8757600080fd5b6000806040838503121561343057600080fd5b823561343b8161340f565b946020939093013593505050565b6101808152600061345e61018083018f6133b7565b8281036020840152613470818f6133b7565b6001600160a01b039d8e1660408501529b8d166060840152505097909916608088015260a087019590955260c086019390935290151560e0850152610100840152610120830152610140820152610160019190915292915050565b6020815260006134de60208301846133b7565b9392505050565b6001600160a01b0381168114611b8757600080fd5b60006020828403121561350c57600080fd5b81356134de816134e5565b634e487b7160e01b600052604160045260246000fd5b604051601f8201601f1916810167ffffffffffffffff8111828210171561355657613556613517565b604052919050565b600067ffffffffffffffff82111561357857613578613517565b5060051b60200190565b60008083601f84011261359457600080fd5b50813567ffffffffffffffff8111156135ac57600080fd5b602083019150836020828501011115612e7357600080fd5b6000806000806000608086880312156135dc57600080fd5b853567ffffffffffffffff808211156135f457600080fd5b818801915088601f83011261360857600080fd5b8135602061361d6136188361355e565b61352d565b82815260059290921b8401810191818101908c84111561363c57600080fd5b948201945b8386101561365a57853582529482019490820190613641565b99505089013596505060408801359450606088013591508082111561367e57600080fd5b5061368b88828901613582565b969995985093965092949392505050565b600081518084526020808501945080840160005b838110156136cc578151875295820195908201906001016136b0565b509495945050505050565b60006020808301818452808551808352604092508286019150828160051b87010184880160005b8381101561375157888303603f19018552815180518452878101516001600160a01b031688850152860151606087850181905261373d8186018361369c565b9689019694505050908601906001016136fe565b509098975050505050505050565b80518252600060208083015160c08286015261377e60c08601826133b7565b90506040840151604086015260608401516060860152608084015185820360808701528181518084528484019150848160051b850101858401935060005b828110156137ea57601f198683030184526137d88286516133b7565b948701949387019391506001016137bc565b5060a0880151955088810360a08a0152613804818761369c565b9998505050505050505050565b6000602080830181845280855180835260408601915060408160051b870101925083870160005b8281101561386657603f1988860301845261385485835161375f565b94509285019290850190600101613838565b5092979650505050505050565b6020815260006134de602083018461375f565b60008060006040848603121561389b57600080fd5b83359250602084013567ffffffffffffffff8111156138b957600080fd5b6138c586828701613582565b9497909650939450505050565b600082601f8301126138e357600080fd5b813567ffffffffffffffff8111156138fd576138fd613517565b613910601f8201601f191660200161352d565b81815284602083860101111561392557600080fd5b816020850160208301376000918101602001919091529392505050565b6000806000806080858703121561395857600080fd5b843567ffffffffffffffff8082111561397057600080fd5b61397c888389016138d2565b9550602087013591508082111561399257600080fd5b5061399f878288016138d2565b949794965050505060408301359260600135919050565b60008060008060008060c087890312156139cf57600080fd5b863567ffffffffffffffff808211156139e757600080fd5b6139f38a838b016138d2565b97506020890135915080821115613a0957600080fd5b50613a1689828a016138d2565b9550506040870135613a27816134e5565b9350606087013592506080870135915060a0870135613a45816134e5565b809150509295509295509295565b600082601f830112613a6457600080fd5b81356020613a746136188361355e565b82815260059290921b84018101918181019086841115613a9357600080fd5b8286015b84811015613ad357803567ffffffffffffffff811115613ab75760008081fd5b613ac58986838b01016138d2565b845250918301918301613a97565b509695505050505050565b600080600060608486031215613af357600080fd5b833567ffffffffffffffff80821115613b0b57600080fd5b613b17878388016138d2565b9450602086013593506040860135915080821115613b3457600080fd5b50613b4186828701613a53565b9150509250925092565b60008060008060808587031215613b6157600080fd5b84359350602085013567ffffffffffffffff80821115613b8057600080fd5b613b8c888389016138d2565b9450604087013593506060870135915080821115613ba957600080fd5b50613bb687828801613a53565b91505092959194509250565b600181811c90821680613bd657607f821691505b6020821081036118a457634e487b7160e01b600052602260045260246000fd5b600060208284031215613c0857600080fd5b81516134de816134e5565b634e487b7160e01b600052601160045260246000fd5b600082821015613c3b57613c3b613c13565b500390565b600060208284031215613c5257600080fd5b5051919050565b6000816000190483118215151615613c7357613c73613c13565b500290565b600060208284031215613c8a57600080fd5b81516134de8161340f565b634e487b7160e01b600052603260045260246000fd5b600060018201613cbd57613cbd613c13565b5060010190565b634e487b7160e01b600052603160045260246000fd5b600082613cf757634e487b7160e01b600052601260045260246000fd5b500490565b60008251613d0e81846020870161338b565b9190910192915050565b634e487b7160e01b600052602160045260246000fdfea2646970667358221220bd4243e9bd746515bcb86c158956589e6aa105ae9ff36ec25bd22716a7486e1c64736f6c634300080d0033",
  "linkReferences": {},
  "deployedLinkReferences": {}
}