{
  "_format": "hh-sol-artifact-1",
  "contractName": "RMVoteMain",
  "sourceName": "contracts/RMVoteMain.sol",
  "abi": [
    {
      "inputs": [],
      "stateMutability": "nonpayable",
      "type": "constructor"
    },
    {
      "anonymous": false,
      "inputs": [
        {
          "indexed": false,
          "internalType": "address",
          "name": "previousAdmin",
          "type": "address"
        },
        {
          "indexed": false,
          "internalType": "address",
          "name": "newAdmin",
          "type": "address"
        }
      ],
      "name": "AdminChanged",
      "type": "event"
    },
    {
      "anonymous": false,
      "inputs": [
        {
          "indexed": true,
          "internalType": "address",
          "name": "beacon",
          "type": "address"
        }
      ],
      "name": "BeaconUpgraded",
      "type": "event"
    },
    {
      "anonymous": false,
      "inputs": [
        {
          "indexed": true,
          "internalType": "address",
          "name": "_address",
          "type": "address"
        }
      ],
      "name": "CreatePoll",
      "type": "event"
    },
    {
      "anonymous": false,
      "inputs": [
        {
          "indexed": false,
          "internalType": "uint8",
          "name": "version",
          "type": "uint8"
        }
      ],
      "name": "Initialized",
      "type": "event"
    },
    {
      "anonymous": false,
      "inputs": [
        {
          "indexed": true,
          "internalType": "address",
          "name": "previousOwner",
          "type": "address"
        },
        {
          "indexed": true,
          "internalType": "address",
          "name": "newOwner",
          "type": "address"
        }
      ],
      "name": "OwnershipTransferred",
      "type": "event"
    },
    {
      "anonymous": false,
      "inputs": [
        {
          "indexed": true,
          "internalType": "address",
          "name": "implementation",
          "type": "address"
        }
      ],
      "name": "Upgraded",
      "type": "event"
    },
    {
      "inputs": [],
      "name": "BURN_PERCENT",
      "outputs": [
        {
          "internalType": "uint256",
          "name": "",
          "type": "uint256"
        }
      ],
      "stateMutability": "view",
      "type": "function"
    },
    {
      "inputs": [],
      "name": "MAX_NUMBER_OF_QUESTIONS",
      "outputs": [
        {
          "internalType": "uint256",
          "name": "",
          "type": "uint256"
        }
      ],
      "stateMutability": "view",
      "type": "function"
    },
    {
      "inputs": [],
      "name": "MAX_NUMBER_OF_VOTERS",
      "outputs": [
        {
          "internalType": "uint256",
          "name": "",
          "type": "uint256"
        }
      ],
      "stateMutability": "view",
      "type": "function"
    },
    {
      "inputs": [],
      "name": "POLL_PRICE",
      "outputs": [
        {
          "internalType": "uint256",
          "name": "",
          "type": "uint256"
        }
      ],
      "stateMutability": "view",
      "type": "function"
    },
    {
      "inputs": [],
      "name": "REGISTER_PRICE",
      "outputs": [
        {
          "internalType": "uint256",
          "name": "",
          "type": "uint256"
        }
      ],
      "stateMutability": "view",
      "type": "function"
    },
    {
      "inputs": [],
      "name": "TEAM_WALLET",
      "outputs": [
        {
          "internalType": "address",
          "name": "",
          "type": "address"
        }
      ],
      "stateMutability": "view",
      "type": "function"
    },
    {
      "inputs": [],
      "name": "TOKEN_AMOUNT_PER_QUESTION",
      "outputs": [
        {
          "internalType": "uint256",
          "name": "",
          "type": "uint256"
        }
      ],
      "stateMutability": "view",
      "type": "function"
    },
    {
      "inputs": [],
      "name": "TOKEN_AMOUNT_PER_VOTER",
      "outputs": [
        {
          "internalType": "uint256",
          "name": "",
          "type": "uint256"
        }
      ],
      "stateMutability": "view",
      "type": "function"
    },
    {
      "inputs": [
        {
          "internalType": "uint256",
          "name": "",
          "type": "uint256"
        }
      ],
      "name": "allPolls",
      "outputs": [
        {
          "internalType": "address",
          "name": "",
          "type": "address"
        }
      ],
      "stateMutability": "view",
      "type": "function"
    },
    {
      "inputs": [
        {
          "internalType": "string",
          "name": "_title",
          "type": "string"
        },
        {
          "internalType": "string",
          "name": "_description",
          "type": "string"
        },
        {
          "internalType": "address",
          "name": "_tokenAddr",
          "type": "address"
        },
        {
          "internalType": "uint256",
          "name": "_openTime",
          "type": "uint256"
        },
        {
          "internalType": "uint256",
          "name": "_closeTime",
          "type": "uint256"
        },
        {
          "internalType": "address",
          "name": "_gasWallet",
          "type": "address"
        }
      ],
      "name": "createPoll",
      "outputs": [
        {
          "internalType": "address",
          "name": "newPollAddr",
          "type": "address"
        }
      ],
      "stateMutability": "payable",
      "type": "function"
    },
    {
      "inputs": [],
      "name": "getActivePollsByManager",
      "outputs": [
        {
          "internalType": "address[]",
          "name": "",
          "type": "address[]"
        }
      ],
      "stateMutability": "view",
      "type": "function"
    },
    {
      "inputs": [],
      "name": "getFinishedPollsByManager",
      "outputs": [
        {
          "internalType": "address[]",
          "name": "",
          "type": "address[]"
        }
      ],
      "stateMutability": "view",
      "type": "function"
    },
    {
      "inputs": [],
      "name": "getPollsByManager",
      "outputs": [
        {
          "internalType": "address[]",
          "name": "",
          "type": "address[]"
        }
      ],
      "stateMutability": "view",
      "type": "function"
    },
    {
      "inputs": [],
      "name": "getUnclosedPolls",
      "outputs": [
        {
          "internalType": "address[]",
          "name": "",
          "type": "address[]"
        }
      ],
      "stateMutability": "view",
      "type": "function"
    },
    {
      "inputs": [
        {
          "internalType": "address",
          "name": "_teamWallet",
          "type": "address"
        }
      ],
      "name": "initialize",
      "outputs": [],
      "stateMutability": "nonpayable",
      "type": "function"
    },
    {
      "inputs": [
        {
          "internalType": "address",
          "name": "",
          "type": "address"
        }
      ],
      "name": "isManager",
      "outputs": [
        {
          "internalType": "bool",
          "name": "",
          "type": "bool"
        }
      ],
      "stateMutability": "view",
      "type": "function"
    },
    {
      "inputs": [],
      "name": "owner",
      "outputs": [
        {
          "internalType": "address",
          "name": "",
          "type": "address"
        }
      ],
      "stateMutability": "view",
      "type": "function"
    },
    {
      "inputs": [
        {
          "internalType": "address",
          "name": "",
          "type": "address"
        },
        {
          "internalType": "uint256",
          "name": "",
          "type": "uint256"
        }
      ],
      "name": "polls",
      "outputs": [
        {
          "internalType": "address",
          "name": "",
          "type": "address"
        }
      ],
      "stateMutability": "view",
      "type": "function"
    },
    {
      "inputs": [],
      "name": "proxiableUUID",
      "outputs": [
        {
          "internalType": "bytes32",
          "name": "",
          "type": "bytes32"
        }
      ],
      "stateMutability": "view",
      "type": "function"
    },
    {
      "inputs": [],
      "name": "registerManager",
      "outputs": [],
      "stateMutability": "payable",
      "type": "function"
    },
    {
      "inputs": [],
      "name": "renounceOwnership",
      "outputs": [],
      "stateMutability": "nonpayable",
      "type": "function"
    },
    {
      "inputs": [
        {
          "internalType": "uint256",
          "name": "_percent",
          "type": "uint256"
        }
      ],
      "name": "setBurnPercent",
      "outputs": [],
      "stateMutability": "nonpayable",
      "type": "function"
    },
    {
      "inputs": [
        {
          "internalType": "uint256",
          "name": "_number",
          "type": "uint256"
        }
      ],
      "name": "setMaxNumberOfVoters",
      "outputs": [],
      "stateMutability": "nonpayable",
      "type": "function"
    },
    {
      "inputs": [
        {
          "internalType": "address",
          "name": "_deployer",
          "type": "address"
        }
      ],
      "name": "setPollDeployer",
      "outputs": [],
      "stateMutability": "nonpayable",
      "type": "function"
    },
    {
      "inputs": [
        {
          "internalType": "uint256",
          "name": "_price",
          "type": "uint256"
        }
      ],
      "name": "setPollPrice",
      "outputs": [],
      "stateMutability": "nonpayable",
      "type": "function"
    },
    {
      "inputs": [
        {
          "internalType": "uint256",
          "name": "_price",
          "type": "uint256"
        }
      ],
      "name": "setRegisterPrice",
      "outputs": [],
      "stateMutability": "nonpayable",
      "type": "function"
    },
    {
      "inputs": [
        {
          "internalType": "address",
          "name": "_address",
          "type": "address"
        }
      ],
      "name": "setTeamWallet",
      "outputs": [],
      "stateMutability": "nonpayable",
      "type": "function"
    },
    {
      "inputs": [
        {
          "internalType": "uint256",
          "name": "_amount",
          "type": "uint256"
        }
      ],
      "name": "setTokenAmountPerQuestion",
      "outputs": [],
      "stateMutability": "nonpayable",
      "type": "function"
    },
    {
      "inputs": [
        {
          "internalType": "uint256",
          "name": "_amount",
          "type": "uint256"
        }
      ],
      "name": "setTokenAmountPerVoter",
      "outputs": [],
      "stateMutability": "nonpayable",
      "type": "function"
    },
    {
      "inputs": [
        {
          "internalType": "address",
          "name": "newOwner",
          "type": "address"
        }
      ],
      "name": "transferOwnership",
      "outputs": [],
      "stateMutability": "nonpayable",
      "type": "function"
    },
    {
      "inputs": [
        {
          "internalType": "address",
          "name": "newImplementation",
          "type": "address"
        }
      ],
      "name": "upgradeTo",
      "outputs": [],
      "stateMutability": "nonpayable",
      "type": "function"
    },
    {
      "inputs": [
        {
          "internalType": "address",
          "name": "newImplementation",
          "type": "address"
        },
        {
          "internalType": "bytes",
          "name": "data",
          "type": "bytes"
        }
      ],
      "name": "upgradeToAndCall",
      "outputs": [],
      "stateMutability": "payable",
      "type": "function"
    },
    {
      "inputs": [
        {
          "internalType": "address payable",
          "name": "to",
          "type": "address"
        },
        {
          "internalType": "uint256",
          "name": "amount",
          "type": "uint256"
        }
      ],
      "name": "withdraw",
      "outputs": [],
      "stateMutability": "nonpayable",
      "type": "function"
    },
    {
      "inputs": [
        {
          "internalType": "address",
          "name": "_tokenContract",
          "type": "address"
        },
        {
          "internalType": "address",
          "name": "to",
          "type": "address"
        },
        {
          "internalType": "uint256",
          "name": "amount",
          "type": "uint256"
        }
      ],
      "name": "withdrawToken",
      "outputs": [],
      "stateMutability": "nonpayable",
      "type": "function"
    },
    {
      "stateMutability": "payable",
      "type": "receive"
    }
  ],
  "bytecode": "0x60a0604052306080523480156200001557600080fd5b506200002062000026565b620000e8565b600054610100900460ff1615620000935760405162461bcd60e51b815260206004820152602760248201527f496e697469616c697a61626c653a20636f6e747261637420697320696e697469604482015266616c697a696e6760c81b606482015260840160405180910390fd5b60005460ff9081161015620000e6576000805460ff191660ff9081179091556040519081527f7f26b83ff96e1f2b6a682f133852f6798a09c465da95921460cefb38474024989060200160405180910390a15b565b608051612b0e620001206000396000818161068f01528181610719015281816108130152818161089801526109790152612b0e6000f3fe60806040526004361061021d5760003560e01c80638da5cb5b1161011d578063b463f1ca116100b0578063ce51b5981161007f578063f2fde38b11610064578063f2fde38b1461058c578063f3ae2415146105ac578063f3fef3a3146105ed57600080fd5b8063ce51b59814610559578063eae34b521461057957600080fd5b8063b463f1ca146104f1578063bacff2a414610511578063bb1570da14610519578063c4d66de81461053957600080fd5b8063a337ac27116100ec578063a337ac2714610491578063a77222d5146104a7578063ae6a37a4146104c7578063b3fb27ef146104dc57600080fd5b80638da5cb5b14610431578063999a94d01461044f5780639c98676414610465578063a19c56df1461047c57600080fd5b80634bdc43b4116101b0578063637cd8741161017f5780636ce1782e116101645780636ce1782e146103e3578063715018a6146103fa57806386c5b20d1461040f57600080fd5b8063637cd874146103ac57806365743531146103cc57600080fd5b80634bdc43b4146103445780634f1ef2861461036457806352d1902d1461037757806357a390cf1461038c57600080fd5b806316fa406e116101ec57806316fa406e146102b55780631e504c9c146102cb5780632b905bf6146102eb5780633659cfe61461032457600080fd5b806301e336671461022957806304fb35741461024b57806308155d9f146102755780631525ff7d1461029557600080fd5b3661022457005b600080fd5b34801561023557600080fd5b506102496102443660046126a0565b61060d565b005b34801561025757600080fd5b506102626101015481565b6040519081526020015b60405180910390f35b34801561028157600080fd5b506102496102903660046126e1565b610640565b3480156102a157600080fd5b506102496102b03660046126fa565b61064d565b3480156102c157600080fd5b5061026260fd5481565b3480156102d757600080fd5b506102496102e63660046126e1565b610678565b3480156102f757600080fd5b506101045461030c906001600160a01b031681565b6040516001600160a01b03909116815260200161026c565b34801561033057600080fd5b5061024961033f3660046126fa565b610685565b34801561035057600080fd5b5061024961035f3660046126e1565b6107fc565b6102496103723660046127a3565b610809565b34801561038357600080fd5b5061026261096c565b34801561039857600080fd5b506102496103a73660046126e1565b610a31565b3480156103b857600080fd5b5061030c6103c73660046126e1565b610a3f565b3480156103d857600080fd5b506102626101025481565b3480156103ef57600080fd5b506102626101005481565b34801561040657600080fd5b50610249610a69565b34801561041b57600080fd5b50610424610a7d565b60405161026c9190612807565b34801561043d57600080fd5b506097546001600160a01b031661030c565b34801561045b57600080fd5b5061026260fe5481565b34801561047157600080fd5b506102626101035481565b34801561048857600080fd5b50610424610daf565b34801561049d57600080fd5b5061026260ff5481565b3480156104b357600080fd5b506102496104c23660046126e1565b61106e565b3480156104d357600080fd5b5061042461107c565b3480156104e857600080fd5b506104246110e8565b3480156104fd57600080fd5b5061024961050c3660046126fa565b611515565b61024961159c565b34801561052557600080fd5b506102496105343660046126e1565b611686565b34801561054557600080fd5b506102496105543660046126fa565b611694565b34801561056557600080fd5b5061030c610574366004612854565b611820565b61030c6105873660046128a0565b611859565b34801561059857600080fd5b506102496105a73660046126fa565b611b96565b3480156105b857600080fd5b506105dd6105c73660046126fa565b6101056020526000908152604090205460ff1681565b604051901515815260200161026c565b3480156105f957600080fd5b50610249610608366004612854565b611c23565b610615611c3e565b61061d611c97565b6106316001600160a01b0384168383611cf1565b61063b600160c955565b505050565b610648611c97565b60ff55565b610655611c97565b61010480546001600160a01b0319166001600160a01b0392909216919091179055565b610680611c97565b60fe55565b6001600160a01b037f00000000000000000000000000000000000000000000000000000000000000001630036107175760405162461bcd60e51b815260206004820152602c60248201527f46756e6374696f6e206d7573742062652063616c6c6564207468726f7567682060448201526b19195b1959d85d1958d85b1b60a21b60648201526084015b60405180910390fd5b7f00000000000000000000000000000000000000000000000000000000000000006001600160a01b03166107727f360894a13ba1a3210667c828492db98dca3e2076cc3735a920a3ca505d382bbc546001600160a01b031690565b6001600160a01b0316146107dd5760405162461bcd60e51b815260206004820152602c60248201527f46756e6374696f6e206d7573742062652063616c6c6564207468726f7567682060448201526b6163746976652070726f787960a01b606482015260840161070e565b604080516000808252602082019092526107f991839190611d78565b50565b610804611c97565b60fd55565b6001600160a01b037f00000000000000000000000000000000000000000000000000000000000000001630036108965760405162461bcd60e51b815260206004820152602c60248201527f46756e6374696f6e206d7573742062652063616c6c6564207468726f7567682060448201526b19195b1959d85d1958d85b1b60a21b606482015260840161070e565b7f00000000000000000000000000000000000000000000000000000000000000006001600160a01b03166108f17f360894a13ba1a3210667c828492db98dca3e2076cc3735a920a3ca505d382bbc546001600160a01b031690565b6001600160a01b03161461095c5760405162461bcd60e51b815260206004820152602c60248201527f46756e6374696f6e206d7573742062652063616c6c6564207468726f7567682060448201526b6163746976652070726f787960a01b606482015260840161070e565b61096882826001611d78565b5050565b6000306001600160a01b037f00000000000000000000000000000000000000000000000000000000000000001614610a0c5760405162461bcd60e51b815260206004820152603860248201527f555550535570677261646561626c653a206d757374206e6f742062652063616c60448201527f6c6564207468726f7567682064656c656761746563616c6c0000000000000000606482015260840161070e565b507f360894a13ba1a3210667c828492db98dca3e2076cc3735a920a3ca505d382bbc90565b610a39611c97565b61010255565b60fb8181548110610a4f57600080fd5b6000918252602090912001546001600160a01b0316905081565b610a71611c97565b610a7b6000611f18565b565b33600090815261010660209081526040808320805482518185028101850190935280835260609493830182828015610ade57602002820191906000526020600020905b81546001600160a01b03168152600190910190602001808311610ac0575b505050505090506000805b8251811015610c08576000838281518110610b0657610b0661293d565b60200260200101519050806001600160a01b031663b42568886040518163ffffffff1660e01b8152600401602060405180830381865afa158015610b4e573d6000803e3d6000fd5b505050506040513d601f19601f82011682018060405250810190610b729190612953565b4210158015610be25750806001600160a01b031663627749e66040518163ffffffff1660e01b8152600401602060405180830381865afa158015610bba573d6000803e3d6000fd5b505050506040513d601f19601f82011682018060405250810190610bde9190612953565b4211155b15610bf55782610bf18161296c565b9350505b5080610c008161296c565b915050610ae9565b5060008167ffffffffffffffff811115610c2457610c24612717565b604051908082528060200260200182016040528015610c4d578160200160208202803683370190505b5090506000805b60fb54811015610da5576000858281518110610c7257610c7261293d565b60200260200101519050806001600160a01b031663b42568886040518163ffffffff1660e01b8152600401602060405180830381865afa158015610cba573d6000803e3d6000fd5b505050506040513d601f19601f82011682018060405250810190610cde9190612953565b4210158015610d4e5750806001600160a01b031663627749e66040518163ffffffff1660e01b8152600401602060405180830381865afa158015610d26573d6000803e3d6000fd5b505050506040513d601f19601f82011682018060405250810190610d4a9190612953565b4211155b15610d9257808484610d5f8161296c565b955081518110610d7157610d7161293d565b60200260200101906001600160a01b031690816001600160a01b0316815250505b5080610d9d8161296c565b915050610c54565b5090949350505050565b336000908152610105602052604090205460609060ff161515600114610e215760405162461bcd60e51b815260206004820152602160248201527f4f6e6c79206d616e61676572732063616e20646f207468697320616374696f6e6044820152601760f91b606482015260840161070e565b3360009081526101066020908152604080832080548251818502810185019093528083529192909190830182828015610e8357602002820191906000526020600020905b81546001600160a01b03168152600190910190602001808311610e65575b505050505090506000805b8251811015610f3f576000838281518110610eab57610eab61293d565b60200260200101519050806001600160a01b031663627749e66040518163ffffffff1660e01b8152600401602060405180830381865afa158015610ef3573d6000803e3d6000fd5b505050506040513d601f19601f82011682018060405250810190610f179190612953565b421115610f2c5782610f288161296c565b9350505b5080610f378161296c565b915050610e8e565b5060008167ffffffffffffffff811115610f5b57610f5b612717565b604051908082528060200260200182016040528015610f84578160200160208202803683370190505b5090506000805b60fb54811015610da5576000858281518110610fa957610fa961293d565b60200260200101519050806001600160a01b031663627749e66040518163ffffffff1660e01b8152600401602060405180830381865afa158015610ff1573d6000803e3d6000fd5b505050506040513d601f19601f820116820180604052508101906110159190612953565b42111561105b578084846110288161296c565b95508151811061103a5761103a61293d565b60200260200101906001600160a01b031690816001600160a01b0316815250505b50806110668161296c565b915050610f8b565b611076611c97565b61010155565b33600090815261010660209081526040918290208054835181840281018401909452808452606093928301828280156110de57602002820191906000526020600020905b81546001600160a01b031681526001909101906020018083116110c0575b5050505050905090565b60606000805b60fb548110156112ab57600060fb828154811061110d5761110d61293d565b6000918252602080832090910154604080516313aedd4b60e31b815290516001600160a01b0390921694508492639d76ea58926004808401938290030181865afa15801561115f573d6000803e3d6000fd5b505050506040513d601f19601f820116820180604052508101906111839190612993565b6040516370a0823160e01b81526001600160a01b0384811660048301529192506000918316906370a0823190602401602060405180830381865afa1580156111cf573d6000803e3d6000fd5b505050506040513d601f19601f820116820180604052508101906111f39190612953565b118015611283575060fb838154811061120e5761120e61293d565b600091825260209182902001546040805163313ba4f360e11b815290516001600160a01b039092169263627749e6926004808401938290030181865afa15801561125c573d6000803e3d6000fd5b505050506040513d601f19601f820116820180604052508101906112809190612953565b42115b1561129657836112928161296c565b9450505b505080806112a39061296c565b9150506110ee565b5060008167ffffffffffffffff8111156112c7576112c7612717565b6040519080825280602002602001820160405280156112f0578160200160208202803683370190505b5090506000805b60fb5481101561150c57600060fb82815481106113165761131661293d565b6000918252602080832090910154604080516313aedd4b60e31b815290516001600160a01b0390921694508492639d76ea58926004808401938290030181865afa158015611368573d6000803e3d6000fd5b505050506040513d601f19601f8201168201806040525081019061138c9190612993565b6040516370a0823160e01b81526001600160a01b0384811660048301529192506000918316906370a0823190602401602060405180830381865afa1580156113d8573d6000803e3d6000fd5b505050506040513d601f19601f820116820180604052508101906113fc9190612953565b11801561148c575060fb83815481106114175761141761293d565b600091825260209182902001546040805163313ba4f360e11b815290516001600160a01b039092169263627749e6926004808401938290030181865afa158015611465573d6000803e3d6000fd5b505050506040513d601f19601f820116820180604052508101906114899190612953565b42115b156114f75760fb83815481106114a4576114a461293d565b6000918252602090912001546001600160a01b031685856114c48161296c565b9650815181106114d6576114d661293d565b60200260200101906001600160a01b031690816001600160a01b0316815250505b505080806115049061296c565b9150506112f7565b50909392505050565b61151d611c97565b60fc546001600160a01b0380831691160361157a5760405162461bcd60e51b815260206004820152601360248201527f73616d652076616c756520616c72656164792100000000000000000000000000604482015260640161070e565b60fc80546001600160a01b0319166001600160a01b0392909216919091179055565b6115a4611c3e565b60fe54803410156116015760405162461bcd60e51b815260206004820152602160248201527f546865207061796d656e7420616d6f756e74206973206e6f7420656e6f7567686044820152601760f91b606482015260840161070e565b336000908152610105602052604090205460ff16156116625760405162461bcd60e51b815260206004820152601f60248201527f416c726561647920726567697374657265642061732061206d616e6167657200604482015260640161070e565b5033600090815261010560205260409020805460ff1916600190811790915560c955565b61168e611c97565b61010355565b600054610100900460ff16158080156116b45750600054600160ff909116105b806116ce5750303b1580156116ce575060005460ff166001145b6117405760405162461bcd60e51b815260206004820152602e60248201527f496e697469616c697a61626c653a20636f6e747261637420697320616c72656160448201527f647920696e697469616c697a6564000000000000000000000000000000000000606482015260840161070e565b6000805460ff191660011790558015611763576000805461ff0019166101001790555b6601c6bf5263400060fd5565b5e620f4800060fe5561271060ff55600a610100556a108b2a2c28029094000000610101556b204fce5e3e250261100000006101025560466101035561010480546001600160a01b0319166001600160a01b0384161790556117cf611f6a565b6117d7611fdd565b8015610968576000805461ff0019169055604051600181527f7f26b83ff96e1f2b6a682f133852f6798a09c465da95921460cefb38474024989060200160405180910390a15050565b610106602052816000526040600020818154811061183d57600080fd5b6000918252602090912001546001600160a01b03169150829050565b6000611863611c3e565b336000908152610105602052604090205460ff1615156001146118d25760405162461bcd60e51b815260206004820152602160248201527f4f6e6c79206d616e61676572732063616e20646f207468697320616374696f6e6044820152601760f91b606482015260840161070e565b60fd548034101561192f5760405162461bcd60e51b815260206004820152602160248201527f546865207061796d656e7420616d6f756e74206973206e6f7420656e6f7567686044820152601760f91b606482015260840161070e565b84848082106119805760405162461bcd60e51b815260206004820152601b60248201527f5468652074696d6520736c6f74206973206e6f742076616c69642e0000000000604482015260640161070e565b6040516bffffffffffffffffffffffff1960608a811b8216602084015287901b16603482015242604882015260009060680160408051808303601f1901815290829052805160209091012060fc547f483028e8000000000000000000000000000000000000000000000000000000008352600483018290523360248401529092506000916001600160a01b039091169063483028e8906044016020604051808303816000875af1158015611a38573d6000803e3d6000fd5b505050506040513d601f19601f82011682018060405250810190611a5c9190612993565b6040517fcd084de50000000000000000000000000000000000000000000000000000000081529091506001600160a01b0382169063cd084de590611aae908f908f908f908f908f908f90600401612a08565b600060405180830381600087803b158015611ac857600080fd5b505af1158015611adc573d6000803e3d6000fd5b505060fb805460018181019092557f3e7257b7272bb46d49cd6019b04ddee20da7c0cb13f7c1ec3391291b2ccebabc0180546001600160a01b0386166001600160a01b03199182168117909255336000908152610106602090815260408083208054968701815583529082209094018054909216831790915591519093507e2f7ef10d1a977fd314ed0cec4e93d0033b53a723a045b1aca01bbee944b48c9250a25050505050611b8c600160c955565b9695505050505050565b611b9e611c97565b6001600160a01b038116611c1a5760405162461bcd60e51b815260206004820152602660248201527f4f776e61626c653a206e6577206f776e657220697320746865207a65726f206160448201527f6464726573730000000000000000000000000000000000000000000000000000606482015260840161070e565b6107f981611f18565b611c2b611c97565b611c358282612050565b61096857600080fd5b600260c95403611c905760405162461bcd60e51b815260206004820152601f60248201527f5265656e7472616e637947756172643a207265656e7472616e742063616c6c00604482015260640161070e565b600260c955565b6097546001600160a01b03163314610a7b5760405162461bcd60e51b815260206004820181905260248201527f4f776e61626c653a2063616c6c6572206973206e6f7420746865206f776e6572604482015260640161070e565b604080516001600160a01b038416602482015260448082018490528251808303909101815260649091019091526020810180517bffffffffffffffffffffffffffffffffffffffffffffffffffffffff167fa9059cbb0000000000000000000000000000000000000000000000000000000017905261063b9084906120ce565b600160c955565b7f4910fdfa16fed3260ed0e7147f7cc6da11a60208b5b9406d12a635614ffd91435460ff1615611dab5761063b836121b3565b826001600160a01b03166352d1902d6040518163ffffffff1660e01b8152600401602060405180830381865afa925050508015611e05575060408051601f3d908101601f19168201909252611e0291810190612953565b60015b611e775760405162461bcd60e51b815260206004820152602e60248201527f45524331393637557067726164653a206e657720696d706c656d656e7461746960448201527f6f6e206973206e6f742055555053000000000000000000000000000000000000606482015260840161070e565b7f360894a13ba1a3210667c828492db98dca3e2076cc3735a920a3ca505d382bbc8114611f0c5760405162461bcd60e51b815260206004820152602960248201527f45524331393637557067726164653a20756e737570706f727465642070726f7860448201527f6961626c65555549440000000000000000000000000000000000000000000000606482015260840161070e565b5061063b838383612271565b609780546001600160a01b038381166001600160a01b0319831681179093556040519116919082907f8be0079c531659141344cd1fd0a4f28419497f9722a3daafe3b4186f6b6457e090600090a35050565b600054610100900460ff16611fd55760405162461bcd60e51b815260206004820152602b60248201527f496e697469616c697a61626c653a20636f6e7472616374206973206e6f74206960448201526a6e697469616c697a696e6760a81b606482015260840161070e565b610a7b61229c565b600054610100900460ff166120485760405162461bcd60e51b815260206004820152602b60248201527f496e697469616c697a61626c653a20636f6e7472616374206973206e6f74206960448201526a6e697469616c697a696e6760a81b606482015260840161070e565b610a7b612310565b6040805160008082526020820190925281906001600160a01b038516906175309085906040516120809190612a60565b600060405180830381858888f193505050503d80600081146120be576040519150601f19603f3d011682016040523d82523d6000602084013e6120c3565b606091505b509095945050505050565b6000612123826040518060400160405280602081526020017f5361666545524332303a206c6f772d6c6576656c2063616c6c206661696c6564815250856001600160a01b031661237b9092919063ffffffff16565b80519091501561063b57808060200190518101906121419190612a7c565b61063b5760405162461bcd60e51b815260206004820152602a60248201527f5361666545524332303a204552433230206f7065726174696f6e20646964206e60448201527f6f74207375636365656400000000000000000000000000000000000000000000606482015260840161070e565b6001600160a01b0381163b6122305760405162461bcd60e51b815260206004820152602d60248201527f455243313936373a206e657720696d706c656d656e746174696f6e206973206e60448201527f6f74206120636f6e747261637400000000000000000000000000000000000000606482015260840161070e565b7f360894a13ba1a3210667c828492db98dca3e2076cc3735a920a3ca505d382bbc80546001600160a01b0319166001600160a01b0392909216919091179055565b61227a83612394565b6000825111806122875750805b1561063b5761229683836123d4565b50505050565b600054610100900460ff166123075760405162461bcd60e51b815260206004820152602b60248201527f496e697469616c697a61626c653a20636f6e7472616374206973206e6f74206960448201526a6e697469616c697a696e6760a81b606482015260840161070e565b610a7b33611f18565b600054610100900460ff16611d715760405162461bcd60e51b815260206004820152602b60248201527f496e697469616c697a61626c653a20636f6e7472616374206973206e6f74206960448201526a6e697469616c697a696e6760a81b606482015260840161070e565b606061238a84846000856124df565b90505b9392505050565b61239d816121b3565b6040516001600160a01b038216907fbc7cd75a20ee27fd9adebab32041f755214dbc6bffa90cc0225b39da2e5c2d3b90600090a250565b60606001600160a01b0383163b6124535760405162461bcd60e51b815260206004820152602660248201527f416464726573733a2064656c65676174652063616c6c20746f206e6f6e2d636f60448201527f6e74726163740000000000000000000000000000000000000000000000000000606482015260840161070e565b600080846001600160a01b03168460405161246e9190612a60565b600060405180830381855af49150503d80600081146124a9576040519150601f19603f3d011682016040523d82523d6000602084013e6124ae565b606091505b50915091506124d68282604051806060016040528060278152602001612ab2602791396125d3565b95945050505050565b6060824710156125575760405162461bcd60e51b815260206004820152602660248201527f416464726573733a20696e73756666696369656e742062616c616e636520666f60448201527f722063616c6c0000000000000000000000000000000000000000000000000000606482015260840161070e565b600080866001600160a01b031685876040516125739190612a60565b60006040518083038185875af1925050503d80600081146125b0576040519150601f19603f3d011682016040523d82523d6000602084013e6125b5565b606091505b50915091506125c6878383876125ec565b925050505b949350505050565b606083156125e257508161238d565b61238d8383612661565b6060831561265b578251600003612654576001600160a01b0385163b6126545760405162461bcd60e51b815260206004820152601d60248201527f416464726573733a2063616c6c20746f206e6f6e2d636f6e7472616374000000604482015260640161070e565b50816125cb565b6125cb83835b8151156126715781518083602001fd5b8060405162461bcd60e51b815260040161070e9190612a9e565b6001600160a01b03811681146107f957600080fd5b6000806000606084860312156126b557600080fd5b83356126c08161268b565b925060208401356126d08161268b565b929592945050506040919091013590565b6000602082840312156126f357600080fd5b5035919050565b60006020828403121561270c57600080fd5b813561238d8161268b565b634e487b7160e01b600052604160045260246000fd5b600067ffffffffffffffff8084111561274857612748612717565b604051601f8501601f19908116603f0116810190828211818310171561277057612770612717565b8160405280935085815286868601111561278957600080fd5b858560208301376000602087830101525050509392505050565b600080604083850312156127b657600080fd5b82356127c18161268b565b9150602083013567ffffffffffffffff8111156127dd57600080fd5b8301601f810185136127ee57600080fd5b6127fd8582356020840161272d565b9150509250929050565b6020808252825182820181905260009190848201906040850190845b818110156128485783516001600160a01b031683529284019291840191600101612823565b50909695505050505050565b6000806040838503121561286757600080fd5b82356128728161268b565b946020939093013593505050565b600082601f83011261289157600080fd5b61238d8383356020850161272d565b60008060008060008060c087890312156128b957600080fd5b863567ffffffffffffffff808211156128d157600080fd5b6128dd8a838b01612880565b975060208901359150808211156128f357600080fd5b5061290089828a01612880565b95505060408701356129118161268b565b9350606087013592506080870135915060a087013561292f8161268b565b809150509295509295509295565b634e487b7160e01b600052603260045260246000fd5b60006020828403121561296557600080fd5b5051919050565b60006001820161298c57634e487b7160e01b600052601160045260246000fd5b5060010190565b6000602082840312156129a557600080fd5b815161238d8161268b565b60005b838110156129cb5781810151838201526020016129b3565b838111156122965750506000910152565b600081518084526129f48160208601602086016129b0565b601f01601f19169290920160200192915050565b60c081526000612a1b60c08301896129dc565b8281036020840152612a2d81896129dc565b9150506001600160a01b03808716604084015285606084015284608084015280841660a084015250979650505050505050565b60008251612a728184602087016129b0565b9190910192915050565b600060208284031215612a8e57600080fd5b8151801515811461238d57600080fd5b60208152600061238d60208301846129dc56fe416464726573733a206c6f772d6c6576656c2064656c65676174652063616c6c206661696c6564a264697066735822122012d37607ae1ab0f5b5c3bff534fbda9f839f8d1b05ea03ac80aecf17579c02fe64736f6c634300080d0033",
  "linkReferences": {},
  "deployedLinkReferences": {}
}